{
  "_format": "hh-sol-artifact-1",
  "contractName": "WavePortal",
  "sourceName": "contracts/WavePortal.sol",
  "abi": [
    {
      "inputs": [],
      "stateMutability": "payable",
      "type": "constructor"
    },
    {
      "anonymous": false,
      "inputs": [
        {
          "indexed": true,
          "internalType": "address",
          "name": "from",
          "type": "address"
        },
        {
          "indexed": false,
          "internalType": "uint256",
          "name": "timestamp",
          "type": "uint256"
        },
        {
          "indexed": false,
          "internalType": "string",
          "name": "message",
          "type": "string"
        }
      ],
      "name": "NewWave",
      "type": "event"
    },
    {
      "inputs": [],
      "name": "getAllWaves",
      "outputs": [
        {
          "components": [
            {
              "internalType": "address",
              "name": "waver",
              "type": "address"
            },
            {
              "internalType": "uint256",
              "name": "timestamp",
              "type": "uint256"
            },
            {
              "internalType": "string",
              "name": "message",
              "type": "string"
            }
          ],
          "internalType": "struct WavePortal.Wave[]",
          "name": "",
          "type": "tuple[]"
        }
      ],
      "stateMutability": "view",
      "type": "function"
    },
    {
      "inputs": [],
      "name": "getTotalWaves",
      "outputs": [
        {
          "internalType": "uint256",
          "name": "",
          "type": "uint256"
        }
      ],
      "stateMutability": "view",
      "type": "function"
    },
    {
      "inputs": [],
      "name": "getWavesForSender",
      "outputs": [
        {
          "internalType": "uint256",
          "name": "",
          "type": "uint256"
        }
      ],
      "stateMutability": "view",
      "type": "function"
    },
    {
      "inputs": [
        {
          "internalType": "string",
          "name": "_message",
          "type": "string"
        }
      ],
      "name": "wave",
      "outputs": [],
      "stateMutability": "nonpayable",
      "type": "function"
    }
  ],
  "bytecode": "0x60806040526200004f6040518060400160405280602081526020017f57617665506f7274616c20636f6e747261637420636f6e73747275637465642e8152506200005560201b620005331760201c565b620001e9565b620000f5816040516024016200006c919062000162565b6040516020818303038152906040527f41304fac000000000000000000000000000000000000000000000000000000007bffffffffffffffffffffffffffffffffffffffffffffffffffffffff19166020820180517bffffffffffffffffffffffffffffffffffffffffffffffffffffffff8381831617835250505050620000f860201b60201c565b50565b60008151905060006a636f6e736f6c652e6c6f679050602083016000808483855afa5050505050565b60006200012e8262000186565b6200013a818562000191565b93506200014c818560208601620001a2565b6200015781620001d8565b840191505092915050565b600060208201905081810360008301526200017e818462000121565b905092915050565b600081519050919050565b600082825260208201905092915050565b60005b83811015620001c2578082015181840152602081019050620001a5565b83811115620001d2576000848401525b50505050565b6000601f19601f8301169050919050565b610e2e80620001f96000396000f3fe608060405234801561001057600080fd5b506004361061004c5760003560e01c8063449d46c014610051578063804ac70a1461006d5780639a2cdc081461008b578063bd43a908146100a9575b600080fd5b61006b6004803603810190610066919061079c565b6100c7565b005b610075610391565b6040516100829190610a96565b60405180910390f35b6100936103d8565b6040516100a09190610a96565b60405180910390f35b6100b16103e2565b6040516100be91906109e2565b60405180910390f35b6001600260008282546100da9190610ba8565b9250508190555060018060003373ffffffffffffffffffffffffffffffffffffffff1673ffffffffffffffffffffffffffffffffffffffff16815260200190815260200160002060008282546101309190610ba8565b92505081905550600060405180606001604052803373ffffffffffffffffffffffffffffffffffffffff16815260200142815260200183815250908060018154018082558091505060019003906000526020600020906003020160009091909190915060008201518160000160006101000a81548173ffffffffffffffffffffffffffffffffffffffff021916908373ffffffffffffffffffffffffffffffffffffffff160217905550602082015181600101556040820151816002019080519060200190610200929190610691565b5050503373ffffffffffffffffffffffffffffffffffffffff167f5f7e16dc676677766a70e9c5628aa6c54ddb8b6e5188e2ae1e1f17f1ffbea716428360405161024b929190610ab1565b60405180910390a26102926040518060400160405280600981526020017f25732077617665642e0000000000000000000000000000000000000000000000815250336105cc565b6000655af3107a40009050478111156102e0576040517f08c379a00000000000000000000000000000000000000000000000000000000081526004016102d790610a56565b60405180910390fd5b60003373ffffffffffffffffffffffffffffffffffffffff1682604051610306906109cd565b60006040518083038185875af1925050503d8060008114610343576040519150601f19603f3d011682016040523d82523d6000602084013e610348565b606091505b505090508061038c576040517f08c379a000000000000000000000000000000000000000000000000000000000815260040161038390610a76565b60405180910390fd5b505050565b6000600160003373ffffffffffffffffffffffffffffffffffffffff1673ffffffffffffffffffffffffffffffffffffffff16815260200190815260200160002054905090565b6000600254905090565b60606000805480602002602001604051908101604052809291908181526020016000905b8282101561052a57838290600052602060002090600302016040518060600160405290816000820160009054906101000a900473ffffffffffffffffffffffffffffffffffffffff1673ffffffffffffffffffffffffffffffffffffffff1673ffffffffffffffffffffffffffffffffffffffff1681526020016001820154815260200160028201805461049990610c7c565b80601f01602080910402602001604051908101604052809291908181526020018280546104c590610c7c565b80156105125780601f106104e757610100808354040283529160200191610512565b820191906000526020600020905b8154815290600101906020018083116104f557829003601f168201915b50505050508152505081526020019060010190610406565b50505050905090565b6105c9816040516024016105479190610a04565b6040516020818303038152906040527f41304fac000000000000000000000000000000000000000000000000000000007bffffffffffffffffffffffffffffffffffffffffffffffffffffffff19166020820180517bffffffffffffffffffffffffffffffffffffffffffffffffffffffff8381831617835250505050610668565b50565b61066482826040516024016105e2929190610a26565b6040516020818303038152906040527f319af333000000000000000000000000000000000000000000000000000000007bffffffffffffffffffffffffffffffffffffffffffffffffffffffff19166020820180517bffffffffffffffffffffffffffffffffffffffffffffffffffffffff8381831617835250505050610668565b5050565b60008151905060006a636f6e736f6c652e6c6f679050602083016000808483855afa5050505050565b82805461069d90610c7c565b90600052602060002090601f0160209004810192826106bf5760008555610706565b82601f106106d857805160ff1916838001178555610706565b82800160010185558215610706579182015b828111156107055782518255916020019190600101906106ea565b5b5090506107139190610717565b5090565b5b80821115610730576000816000905550600101610718565b5090565b600061074761074284610b06565b610ae1565b90508281526020810184848401111561075f57600080fd5b61076a848285610c3a565b509392505050565b600082601f83011261078357600080fd5b8135610793848260208601610734565b91505092915050565b6000602082840312156107ae57600080fd5b600082013567ffffffffffffffff8111156107c857600080fd5b6107d484828501610772565b91505092915050565b60006107e9838361095f565b905092915050565b6107fa81610bfe565b82525050565b61080981610bfe565b82525050565b600061081a82610b47565b6108248185610b6a565b93508360208202850161083685610b37565b8060005b85811015610872578484038952815161085385826107dd565b945061085e83610b5d565b925060208a0199505060018101905061083a565b50829750879550505050505092915050565b600061088f82610b52565b6108998185610b86565b93506108a9818560208601610c49565b6108b281610d6c565b840191505092915050565b60006108c882610b52565b6108d28185610b97565b93506108e2818560208601610c49565b6108eb81610d6c565b840191505092915050565b6000610903603483610b97565b915061090e82610d7d565b604082019050919050565b6000610926601383610b97565b915061093182610dcc565b602082019050919050565b6000610949600083610b7b565b915061095482610df5565b600082019050919050565b600060608301600083015161097760008601826107f1565b50602083015161098a60208601826109af565b50604083015184820360408601526109a28282610884565b9150508091505092915050565b6109b881610c30565b82525050565b6109c781610c30565b82525050565b60006109d88261093c565b9150819050919050565b600060208201905081810360008301526109fc818461080f565b905092915050565b60006020820190508181036000830152610a1e81846108bd565b905092915050565b60006040820190508181036000830152610a4081856108bd565b9050610a4f6020830184610800565b9392505050565b60006020820190508181036000830152610a6f816108f6565b9050919050565b60006020820190508181036000830152610a8f81610919565b9050919050565b6000602082019050610aab60008301846109be565b92915050565b6000604082019050610ac660008301856109be565b8181036020830152610ad881846108bd565b90509392505050565b6000610aeb610afc565b9050610af78282610cae565b919050565b6000604051905090565b600067ffffffffffffffff821115610b2157610b20610d3d565b5b610b2a82610d6c565b9050602081019050919050565b6000819050602082019050919050565b600081519050919050565b600081519050919050565b6000602082019050919050565b600082825260208201905092915050565b600081905092915050565b600082825260208201905092915050565b600082825260208201905092915050565b6000610bb382610c30565b9150610bbe83610c30565b9250827fffffffffffffffffffffffffffffffffffffffffffffffffffffffffffffffff03821115610bf357610bf2610cdf565b5b828201905092915050565b6000610c0982610c10565b9050919050565b600073ffffffffffffffffffffffffffffffffffffffff82169050919050565b6000819050919050565b82818337600083830152505050565b60005b83811015610c67578082015181840152602081019050610c4c565b83811115610c76576000848401525b50505050565b60006002820490506001821680610c9457607f821691505b60208210811415610ca857610ca7610d0e565b5b50919050565b610cb782610d6c565b810181811067ffffffffffffffff82111715610cd657610cd5610d3d565b5b80604052505050565b7f4e487b7100000000000000000000000000000000000000000000000000000000600052601160045260246000fd5b7f4e487b7100000000000000000000000000000000000000000000000000000000600052602260045260246000fd5b7f4e487b7100000000000000000000000000000000000000000000000000000000600052604160045260246000fd5b6000601f19601f8301169050919050565b7f547279696e6720746f207769746864726177206d6f7265206d6f6e657920746860008201527f616e2074686520636f6e7472616374206861732e000000000000000000000000602082015250565b7f4661696c656420746f2073656e64204554482e00000000000000000000000000600082015250565b5056fea264697066735822122091ba4b252219927d52fbf9551093edc7d8156f715985d7cf1ab5fa6e8366494964736f6c63430008040033",
  "linkReferences": {},
  "deployedLinkReferences": {}
}