{
  "_format": "hh-sol-artifact-1",
  "contractName": "WavePortal",
  "sourceName": "contracts/WavePortal.sol",
  "abi": [
    {
      "inputs": [],
      "stateMutability": "nonpayable",
      "type": "constructor"
    },
    {
      "anonymous": false,
      "inputs": [
        {
          "indexed": true,
          "internalType": "address",
          "name": "from",
          "type": "address"
        },
        {
          "indexed": false,
          "internalType": "uint256",
          "name": "timestamp",
          "type": "uint256"
        },
        {
          "indexed": false,
          "internalType": "string",
          "name": "message",
          "type": "string"
        }
      ],
      "name": "NewWave",
      "type": "event"
    },
    {
      "inputs": [],
      "name": "getAllWaves",
      "outputs": [
        {
          "components": [
            {
              "internalType": "address",
              "name": "waver",
              "type": "address"
            },
            {
              "internalType": "uint256",
              "name": "timestamp",
              "type": "uint256"
            },
            {
              "internalType": "string",
              "name": "message",
              "type": "string"
            }
          ],
          "internalType": "struct WavePortal.Wave[]",
          "name": "",
          "type": "tuple[]"
        }
      ],
      "stateMutability": "view",
      "type": "function"
    },
    {
      "inputs": [],
      "name": "getTotalWaves",
      "outputs": [
        {
          "internalType": "uint256",
          "name": "",
          "type": "uint256"
        }
      ],
      "stateMutability": "view",
      "type": "function"
    },
    {
      "inputs": [],
      "name": "getWavesForSender",
      "outputs": [
        {
          "internalType": "uint256",
          "name": "",
          "type": "uint256"
        }
      ],
      "stateMutability": "view",
      "type": "function"
    },
    {
      "inputs": [
        {
          "internalType": "string",
          "name": "_message",
          "type": "string"
        }
      ],
      "name": "wave",
      "outputs": [],
      "stateMutability": "nonpayable",
      "type": "function"
    }
  ],
  "bytecode": "0x60806040523480156200001157600080fd5b506200005d6040518060400160405280602081526020017f57617665506f7274616c20636f6e747261637420636f6e73747275637465642e8152506200006360201b620004381760201c565b620001f7565b62000103816040516024016200007a919062000170565b6040516020818303038152906040527f41304fac000000000000000000000000000000000000000000000000000000007bffffffffffffffffffffffffffffffffffffffffffffffffffffffff19166020820180517bffffffffffffffffffffffffffffffffffffffffffffffffffffffff83818316178352505050506200010660201b60201c565b50565b60008151905060006a636f6e736f6c652e6c6f679050602083016000808483855afa5050505050565b60006200013c8262000194565b6200014881856200019f565b93506200015a818560208601620001b0565b6200016581620001e6565b840191505092915050565b600060208201905081810360008301526200018c81846200012f565b905092915050565b600081519050919050565b600082825260208201905092915050565b60005b83811015620001d0578082015181840152602081019050620001b3565b83811115620001e0576000848401525b50505050565b6000601f19601f8301169050919050565b610c0780620002076000396000f3fe608060405234801561001057600080fd5b506004361061004c5760003560e01c8063449d46c014610051578063804ac70a1461006d5780639a2cdc081461008b578063bd43a908146100a9575b600080fd5b61006b600480360381019061006691906106a4565b6100c7565b005b610075610296565b60405161008291906108f5565b60405180910390f35b6100936102dd565b6040516100a091906108f5565b60405180910390f35b6100b16102e7565b6040516100be919061086c565b60405180910390f35b6001600260008282546100da91906109fc565b9250508190555060018060003373ffffffffffffffffffffffffffffffffffffffff1673ffffffffffffffffffffffffffffffffffffffff168152602001908152602001600020600082825461013091906109fc565b925050819055506101776040518060400160405280601c81526020017f2573206861732077617665642077697468206d6573736167652025730000000081525033836104d1565b600060405180606001604052803373ffffffffffffffffffffffffffffffffffffffff16815260200142815260200183815250908060018154018082558091505060019003906000526020600020906003020160009091909190915060008201518160000160006101000a81548173ffffffffffffffffffffffffffffffffffffffff021916908373ffffffffffffffffffffffffffffffffffffffff160217905550602082015181600101556040820151816002019080519060200190610240929190610599565b5050503373ffffffffffffffffffffffffffffffffffffffff167f5f7e16dc676677766a70e9c5628aa6c54ddb8b6e5188e2ae1e1f17f1ffbea716428360405161028b929190610910565b60405180910390a250565b6000600160003373ffffffffffffffffffffffffffffffffffffffff1673ffffffffffffffffffffffffffffffffffffffff16815260200190815260200160002054905090565b6000600254905090565b60606000805480602002602001604051908101604052809291908181526020016000905b8282101561042f57838290600052602060002090600302016040518060600160405290816000820160009054906101000a900473ffffffffffffffffffffffffffffffffffffffff1673ffffffffffffffffffffffffffffffffffffffff1673ffffffffffffffffffffffffffffffffffffffff1681526020016001820154815260200160028201805461039e90610ad0565b80601f01602080910402602001604051908101604052809291908181526020018280546103ca90610ad0565b80156104175780601f106103ec57610100808354040283529160200191610417565b820191906000526020600020905b8154815290600101906020018083116103fa57829003601f168201915b5050505050815250508152602001906001019061030b565b50505050905090565b6104ce8160405160240161044c919061088e565b6040516020818303038152906040527f41304fac000000000000000000000000000000000000000000000000000000007bffffffffffffffffffffffffffffffffffffffffffffffffffffffff19166020820180517bffffffffffffffffffffffffffffffffffffffffffffffffffffffff8381831617835250505050610570565b50565b61056b8383836040516024016104e9939291906108b0565b6040516020818303038152906040527fe0e9ad4f000000000000000000000000000000000000000000000000000000007bffffffffffffffffffffffffffffffffffffffffffffffffffffffff19166020820180517bffffffffffffffffffffffffffffffffffffffffffffffffffffffff8381831617835250505050610570565b505050565b60008151905060006a636f6e736f6c652e6c6f679050602083016000808483855afa5050505050565b8280546105a590610ad0565b90600052602060002090601f0160209004810192826105c7576000855561060e565b82601f106105e057805160ff191683800117855561060e565b8280016001018555821561060e579182015b8281111561060d5782518255916020019190600101906105f2565b5b50905061061b919061061f565b5090565b5b80821115610638576000816000905550600101610620565b5090565b600061064f61064a84610965565b610940565b90508281526020810184848401111561066757600080fd5b610672848285610a8e565b509392505050565b600082601f83011261068b57600080fd5b813561069b84826020860161063c565b91505092915050565b6000602082840312156106b657600080fd5b600082013567ffffffffffffffff8111156106d057600080fd5b6106dc8482850161067a565b91505092915050565b60006106f183836107fe565b905092915050565b61070281610a52565b82525050565b61071181610a52565b82525050565b6000610722826109a6565b61072c81856109c9565b93508360208202850161073e85610996565b8060005b8581101561077a578484038952815161075b85826106e5565b9450610766836109bc565b925060208a01995050600181019050610742565b50829750879550505050505092915050565b6000610797826109b1565b6107a181856109da565b93506107b1818560208601610a9d565b6107ba81610bc0565b840191505092915050565b60006107d0826109b1565b6107da81856109eb565b93506107ea818560208601610a9d565b6107f381610bc0565b840191505092915050565b600060608301600083015161081660008601826106f9565b506020830151610829602086018261084e565b5060408301518482036040860152610841828261078c565b9150508091505092915050565b61085781610a84565b82525050565b61086681610a84565b82525050565b600060208201905081810360008301526108868184610717565b905092915050565b600060208201905081810360008301526108a881846107c5565b905092915050565b600060608201905081810360008301526108ca81866107c5565b90506108d96020830185610708565b81810360408301526108eb81846107c5565b9050949350505050565b600060208201905061090a600083018461085d565b92915050565b6000604082019050610925600083018561085d565b818103602083015261093781846107c5565b90509392505050565b600061094a61095b565b90506109568282610b02565b919050565b6000604051905090565b600067ffffffffffffffff8211156109805761097f610b91565b5b61098982610bc0565b9050602081019050919050565b6000819050602082019050919050565b600081519050919050565b600081519050919050565b6000602082019050919050565b600082825260208201905092915050565b600082825260208201905092915050565b600082825260208201905092915050565b6000610a0782610a84565b9150610a1283610a84565b9250827fffffffffffffffffffffffffffffffffffffffffffffffffffffffffffffffff03821115610a4757610a46610b33565b5b828201905092915050565b6000610a5d82610a64565b9050919050565b600073ffffffffffffffffffffffffffffffffffffffff82169050919050565b6000819050919050565b82818337600083830152505050565b60005b83811015610abb578082015181840152602081019050610aa0565b83811115610aca576000848401525b50505050565b60006002820490506001821680610ae857607f821691505b60208210811415610afc57610afb610b62565b5b50919050565b610b0b82610bc0565b810181811067ffffffffffffffff82111715610b2a57610b29610b91565b5b80604052505050565b7f4e487b7100000000000000000000000000000000000000000000000000000000600052601160045260246000fd5b7f4e487b7100000000000000000000000000000000000000000000000000000000600052602260045260246000fd5b7f4e487b7100000000000000000000000000000000000000000000000000000000600052604160045260246000fd5b6000601f19601f830116905091905056fea26469706673582212202a7fc481296938b9577cceea3e6452c02113e73c76d0483a1696de1ab84450ca64736f6c63430008040033",
  "linkReferences": {},
  "deployedLinkReferences": {}
}